{
  "_format": "hh-sol-artifact-1",
  "contractName": "Airdrop",
  "sourceName": "contracts/example/Airdrop.sol",
  "abi": [
    {
      "inputs": [
        {
          "internalType": "address",
          "name": "identityVerificationHubAddress",
          "type": "address"
        },
        {
          "internalType": "string",
          "name": "scopeSeed",
          "type": "string"
        },
        {
          "internalType": "address",
          "name": "tokenAddress",
          "type": "address"
        }
      ],
      "stateMutability": "nonpayable",
      "type": "constructor"
    },
    {
      "inputs": [],
      "name": "AlreadyClaimed",
      "type": "error"
    },
    {
      "inputs": [],
      "name": "ClaimNotOpen",
      "type": "error"
    },
    {
      "inputs": [],
      "name": "InvalidDataFormat",
      "type": "error"
    },
    {
      "inputs": [],
      "name": "InvalidProof",
      "type": "error"
    },
    {
      "inputs": [],
      "name": "InvalidUserIdentifier",
      "type": "error"
    },
    {
      "inputs": [
        {
          "internalType": "address",
          "name": "nonRegisteredAddress",
          "type": "address"
        }
      ],
      "name": "NotRegistered",
      "type": "error"
    },
    {
      "inputs": [
        {
          "internalType": "address",
          "name": "owner",
          "type": "address"
        }
      ],
      "name": "OwnableInvalidOwner",
      "type": "error"
    },
    {
      "inputs": [
        {
          "internalType": "address",
          "name": "account",
          "type": "address"
        }
      ],
      "name": "OwnableUnauthorizedAccount",
      "type": "error"
    },
    {
      "inputs": [],
      "name": "RegisteredNullifier",
      "type": "error"
    },
    {
      "inputs": [],
      "name": "RegistrationNotClosed",
      "type": "error"
    },
    {
      "inputs": [],
      "name": "RegistrationNotOpen",
      "type": "error"
    },
    {
      "inputs": [
        {
          "internalType": "address",
          "name": "token",
          "type": "address"
        }
      ],
      "name": "SafeERC20FailedOperation",
      "type": "error"
    },
    {
      "inputs": [],
      "name": "UnauthorizedCaller",
      "type": "error"
    },
    {
      "inputs": [],
      "name": "UserIdentifierAlreadyRegistered",
      "type": "error"
    },
    {
      "anonymous": false,
      "inputs": [],
      "name": "ClaimClose",
      "type": "event"
    },
    {
      "anonymous": false,
      "inputs": [],
      "name": "ClaimOpen",
      "type": "event"
    },
    {
      "anonymous": false,
      "inputs": [
        {
          "indexed": false,
          "internalType": "uint256",
          "name": "index",
          "type": "uint256"
        },
        {
          "indexed": false,
          "internalType": "address",
          "name": "account",
          "type": "address"
        },
        {
          "indexed": false,
          "internalType": "uint256",
          "name": "amount",
          "type": "uint256"
        }
      ],
      "name": "Claimed",
      "type": "event"
    },
    {
      "anonymous": false,
      "inputs": [
        {
          "indexed": false,
          "internalType": "bytes32",
          "name": "newMerkleRoot",
          "type": "bytes32"
        }
      ],
      "name": "MerkleRootUpdated",
      "type": "event"
    },
    {
      "anonymous": false,
      "inputs": [
        {
          "indexed": true,
          "internalType": "address",
          "name": "previousOwner",
          "type": "address"
        },
        {
          "indexed": true,
          "internalType": "address",
          "name": "newOwner",
          "type": "address"
        }
      ],
      "name": "OwnershipTransferred",
      "type": "event"
    },
    {
      "anonymous": false,
      "inputs": [],
      "name": "RegistrationClose",
      "type": "event"
    },
    {
      "anonymous": false,
      "inputs": [],
      "name": "RegistrationOpen",
      "type": "event"
    },
    {
      "anonymous": false,
      "inputs": [
        {
          "indexed": true,
          "internalType": "uint256",
          "name": "registeredUserIdentifier",
          "type": "uint256"
        },
        {
          "indexed": true,
          "internalType": "uint256",
          "name": "nullifier",
          "type": "uint256"
        }
      ],
      "name": "UserIdentifierRegistered",
      "type": "event"
    },
    {
      "inputs": [
        {
          "internalType": "uint256",
          "name": "index",
          "type": "uint256"
        },
        {
          "internalType": "uint256",
          "name": "amount",
          "type": "uint256"
        },
        {
          "internalType": "bytes32[]",
          "name": "merkleProof",
          "type": "bytes32[]"
        }
      ],
      "name": "claim",
      "outputs": [],
      "stateMutability": "nonpayable",
      "type": "function"
    },
    {
      "inputs": [
        {
          "internalType": "address",
          "name": "",
          "type": "address"
        }
      ],
      "name": "claimed",
      "outputs": [
        {
          "internalType": "bool",
          "name": "",
          "type": "bool"
        }
      ],
      "stateMutability": "view",
      "type": "function"
    },
    {
      "inputs": [],
      "name": "closeClaim",
      "outputs": [],
      "stateMutability": "nonpayable",
      "type": "function"
    },
    {
      "inputs": [],
      "name": "closeRegistration",
      "outputs": [],
      "stateMutability": "nonpayable",
      "type": "function"
    },
    {
      "inputs": [
        {
          "internalType": "bytes32",
          "name": "destinationChainId",
          "type": "bytes32"
        },
        {
          "internalType": "bytes32",
          "name": "userIdentifier",
          "type": "bytes32"
        },
        {
          "internalType": "bytes",
          "name": "userDefinedData",
          "type": "bytes"
        }
      ],
      "name": "getConfigId",
      "outputs": [
        {
          "internalType": "bytes32",
          "name": "",
          "type": "bytes32"
        }
      ],
      "stateMutability": "view",
      "type": "function"
    },
    {
      "inputs": [],
      "name": "getScope",
      "outputs": [
        {
          "internalType": "uint256",
          "name": "",
          "type": "uint256"
        }
      ],
      "stateMutability": "view",
      "type": "function"
    },
    {
      "inputs": [],
      "name": "isClaimOpen",
      "outputs": [
        {
          "internalType": "bool",
          "name": "",
          "type": "bool"
        }
      ],
      "stateMutability": "view",
      "type": "function"
    },
    {
      "inputs": [
        {
          "internalType": "address",
          "name": "registeredAddress",
          "type": "address"
        }
      ],
      "name": "isRegistered",
      "outputs": [
        {
          "internalType": "bool",
          "name": "",
          "type": "bool"
        }
      ],
      "stateMutability": "view",
      "type": "function"
    },
    {
      "inputs": [],
      "name": "isRegistrationOpen",
      "outputs": [
        {
          "internalType": "bool",
          "name": "",
          "type": "bool"
        }
      ],
      "stateMutability": "view",
      "type": "function"
    },
    {
      "inputs": [],
      "name": "merkleRoot",
      "outputs": [
        {
          "internalType": "bytes32",
          "name": "",
          "type": "bytes32"
        }
      ],
      "stateMutability": "view",
      "type": "function"
    },
    {
      "inputs": [
        {
          "internalType": "bytes",
          "name": "output",
          "type": "bytes"
        },
        {
          "internalType": "bytes",
          "name": "userData",
          "type": "bytes"
        }
      ],
      "name": "onVerificationSuccess",
      "outputs": [],
      "stateMutability": "nonpayable",
      "type": "function"
    },
    {
      "inputs": [],
      "name": "openClaim",
      "outputs": [],
      "stateMutability": "nonpayable",
      "type": "function"
    },
    {
      "inputs": [],
      "name": "openRegistration",
      "outputs": [],
      "stateMutability": "nonpayable",
      "type": "function"
    },
    {
      "inputs": [],
      "name": "owner",
      "outputs": [
        {
          "internalType": "address",
          "name": "",
          "type": "address"
        }
      ],
      "stateMutability": "view",
      "type": "function"
    },
    {
      "inputs": [],
      "name": "renounceOwnership",
      "outputs": [],
      "stateMutability": "nonpayable",
      "type": "function"
    },
    {
      "inputs": [],
      "name": "scope",
      "outputs": [
        {
          "internalType": "uint256",
          "name": "",
          "type": "uint256"
        }
      ],
      "stateMutability": "view",
      "type": "function"
    },
    {
      "inputs": [
        {
          "internalType": "bytes32",
          "name": "configId",
          "type": "bytes32"
        }
      ],
      "name": "setConfigId",
      "outputs": [],
      "stateMutability": "nonpayable",
      "type": "function"
    },
    {
      "inputs": [
        {
          "internalType": "bytes32",
          "name": "newMerkleRoot",
          "type": "bytes32"
        }
      ],
      "name": "setMerkleRoot",
      "outputs": [],
      "stateMutability": "nonpayable",
      "type": "function"
    },
    {
      "inputs": [],
      "name": "token",
      "outputs": [
        {
          "internalType": "contract IERC20",
          "name": "",
          "type": "address"
        }
      ],
      "stateMutability": "view",
      "type": "function"
    },
    {
      "inputs": [
        {
          "internalType": "address",
          "name": "newOwner",
          "type": "address"
        }
      ],
      "name": "transferOwnership",
      "outputs": [],
      "stateMutability": "nonpayable",
      "type": "function"
    },
    {
      "inputs": [],
      "name": "verificationConfigId",
      "outputs": [
        {
          "internalType": "bytes32",
          "name": "",
          "type": "bytes32"
        }
      ],
      "stateMutability": "view",
      "type": "function"
    },
    {
      "inputs": [
        {
          "internalType": "bytes",
          "name": "proofPayload",
          "type": "bytes"
        },
        {
          "internalType": "bytes",
          "name": "userContextData",
          "type": "bytes"
        }
      ],
      "name": "verifySelfProof",
      "outputs": [],
      "stateMutability": "nonpayable",
      "type": "function"
    }
  ],
  "bytecode": "0x60c060405234801561001057600080fd5b50604051611bf5380380611bf583398101604081905261002f916106b3565b336001600160a01b0384166080528383610051308261004c6100a3565b6100f8565b60005550506001600160a01b03811661008557604051631e4fbdf760e01b8152600060048201526024015b60405180910390fd5b61008e816101b5565b506001600160a01b031660a052506108549050565b60004661a4ec8190036100cb5773f134707a4c4a3a76b8410fc0294d620a7c34158191505090565b8062aa044c036100f057730a782f7f9f8aac6e0bacaf3cd4aa292c3275c6f291505090565b600091505090565b60006001600160a01b038216610110575060006101ae565b600061011c8584610207565b90506000610129856102cb565b604080518082018252848152602081018390529051632b0aac7f60e11b81529192506001600160a01b0386169163561558fe91610168916004016107a1565b602060405180830381865afa158015610185573d6000803e3d6000fd5b505050506040513d601f19601f820116820180604052508101906101a991906107d2565b925050505b9392505050565b600180546001600160a01b038381166001600160a01b0319831681179093556040519116919082907f8be0079c531659141344cd1fd0a4f28419497f9722a3daafe3b4186f6b6457e090600090a35050565b600080610213846103de565b9050600061022b6102268383601f6105bf565b6102cb565b9050600061023f61022684601f602a6105bf565b604080518082018252848152602081018390529051632b0aac7f60e11b81529192506001600160a01b0387169163561558fe9161027e916004016107a1565b602060405180830381865afa15801561029b573d6000803e3d6000fd5b505050506040513d601f19601f820116820180604052508101906102bf91906107d2565b93505050505b92915050565b600080829050601f815111156103315760405162461bcd60e51b815260206004820152602560248201527f537472696e6720746f6f206c6f6e6720666f7220426967496e7420636f6e76656044820152643939b4b7b760d91b606482015260840161007c565b6000805b82518110156103d657607f838281518110610352576103526107eb565b016020015160f81c11156103a85760405162461bcd60e51b815260206004820152601c60248201527f4e6f6e2d41534349492063686172616374657220646574656374656400000000604482015260640161007c565b8281815181106103ba576103ba6107eb565b60209101015160f81c60089290921b9190911790600101610335565b509392505050565b604080518082018252601081526f181899199a1a9b1b9c1cb0b131b232b360811b60208201528151602a80825260608281019094526001600160a01b0385169291600091602082018180368337019050509050600360fc1b81600081518110610449576104496107eb565b60200101906001600160f81b031916908160001a905350600f60fb1b81600181518110610478576104786107eb565b60200101906001600160f81b031916908160001a90535060005b60148110156105b657826004856104aa84600c610817565b602081106104ba576104ba6107eb565b1a60f81b6001600160f81b031916901c60f81c60ff16815181106104e0576104e06107eb565b01602001516001600160f81b031916826104fb83600261082a565b610506906002610817565b81518110610516576105166107eb565b60200101906001600160f81b031916908160001a905350828461053a83600c610817565b6020811061054a5761054a6107eb565b825191901a600f16908110610561576105616107eb565b01602001516001600160f81b0319168261057c83600261082a565b610587906003610817565b81518110610597576105976107eb565b60200101906001600160f81b031916908160001a905350600101610492565b50949350505050565b60608360006105ce8585610841565b6001600160401b038111156105e5576105e561069d565b6040519080825280601f01601f19166020018201604052801561060f576020820181803683370190505b509050845b848110156106775782818151811061062e5761062e6107eb565b01602001516001600160f81b031916826106488884610841565b81518110610658576106586107eb565b60200101906001600160f81b031916908160001a905350600101610614565b5095945050505050565b80516001600160a01b038116811461069857600080fd5b919050565b634e487b7160e01b600052604160045260246000fd5b6000806000606084860312156106c857600080fd5b6106d184610681565b60208501519093506001600160401b038111156106ed57600080fd5b8401601f810186136106fe57600080fd5b80516001600160401b038111156107175761071761069d565b604051601f8201601f19908116603f011681016001600160401b03811182821017156107455761074561069d565b60405281815282820160200188101561075d57600080fd5b60005b8281101561077c57602081850181015183830182015201610760565b5060006020838301015280945050505061079860408501610681565b90509250925092565b60408101818360005b60028110156107c95781518352602092830192909101906001016107aa565b50505092915050565b6000602082840312156107e457600080fd5b5051919050565b634e487b7160e01b600052603260045260246000fd5b634e487b7160e01b600052601160045260246000fd5b808201808211156102c5576102c5610801565b80820281158282048414176102c5576102c5610801565b818103818111156102c5576102c5610801565b60805160a05161136e610887600039600081816102d001526105860152600081816103d30152610780015261136e6000f3fe608060405234801561001057600080fd5b50600436106101425760003560e01c8063ada1b319116100b8578063c3c5a5471161007c578063c3c5a5471461024e578063c884ef831461027a578063d06e4ee71461029d578063d161802b146102a5578063f2fde38b146102b8578063fc0c546a146102cb57600080fd5b8063ada1b319146101ff578063ae0b51df14610217578063bb4437441461022a578063c2fc94a114610233578063c385abae1461023b57600080fd5b80637ab2af2b1161010a5780637ab2af2b1461019f5780637cb64759146101ac5780637dc673bc146101bf5780638d2d8d6a146101c75780638da5cb5b146101da578063951cfa471461018f57600080fd5b806324fd265214610147578063293cdbf11461016e5780632eb4a7ab146101785780636e62d0a81461018f578063715018a614610197575b600080fd5b60045461015990610100900460ff1681565b60405190151581526020015b60405180910390f35b6101766102f2565b005b61018160025481565b604051908152602001610165565b600054610181565b610176610334565b6004546101599060ff1681565b6101766101ba366004610b54565b610348565b61017661038b565b6101766101d5366004610c59565b6103c8565b6001546001600160a01b03165b6040516001600160a01b039091168152602001610165565b61018161020d366004610cc0565b6007549392505050565b610176610225366004610d32565b610438565b61018160075481565b6101766105f3565b610176610249366004610b54565b610631565b61015961025c366004610ddc565b6001600160a01b031660009081526006602052604090205460ff1690565b610159610288366004610ddc565b60036020526000908152604090205460ff1681565b61017661063e565b6101766102b3366004610e4d565b61067e565b6101766102c6366004610ddc565b61082d565b6101e77f000000000000000000000000000000000000000000000000000000000000000081565b6102fa61086b565b6004805461ff0019166101001790556040517f0a1c1f14fb576fdcf33dc5fa27868e61fd4447b0e37a37413baac599860ce15190600090a1565b61033c61086b565b6103466000610898565b565b61035061086b565b60028190556040518181527f90004c04698bc3322499a575ed3752dd4abf33e0a7294c06a787a0fe01bea9419060200160405180910390a150565b61039361086b565b6004805460ff191690556040517f288d754f7e5984845916eb8e61674ddebd6ad70a1b2aca6c47c5deb70b59be2590600090a1565b336001600160a01b037f0000000000000000000000000000000000000000000000000000000000000000161461041157604051635c427cd960e01b815260040160405180910390fd5b6000828060200190518101906104279190611060565b905061043381836108ea565b505050565b60045460ff161561045c5760405163697e379b60e01b815260040160405180910390fd5b600454610100900460ff16610484576040516335b43c0360e11b815260040160405180910390fd5b3360009081526003602052604090205460ff16156104b557604051630c8d9eab60e31b815260040160405180910390fd5b3360009081526006602052604090205460ff166104ec5760405163bfc6c33760e01b81523360048201526024015b60405180910390fd5b6040805160208082018690523360601b6bffffffffffffffffffffffff1916828401526054808301869052835180840390910181526074909201909252805191012060025461053d908390836109fe565b61055a576040516309bde33960e01b815260040160405180910390fd5b610579336000908152600360205260409020805460ff19166001179055565b6105ad6001600160a01b037f0000000000000000000000000000000000000000000000000000000000000000163385610a14565b604080518581523360208201529081018490527f4ec90e965519d92681267467f775ada5bd214aa92c0dc93d90a5e880ce9ed0269060600160405180910390a150505050565b6105fb61086b565b6004805461ff00191690556040517fd9cdc0c7d0e14acb34ad43d7476a560503dbdee12d1d6185e8edbb420b3dfd5790600090a1565b61063961086b565b600755565b61064661086b565b6004805460ff191660011790556040517f79ca010d28c7a51d53028fb1d0e0b0e1e129832dcc1bb4be0ae511096051c65190600090a1565b60208310156106a05760405163a512e2ff60e01b815260040160405180910390fd5b60408110156106c25760405163a512e2ff60e01b815260040160405180910390fd5b833560006106d3602082858761122b565b6106dc91611255565b905060006106ee60406020868861122b565b6106f791611255565b90506000610708856040818961122b565b8080601f0160208091040260200160405190810160405280939291908181526020018383808284376000920182905250600754949550939250610749915050565b905060006002600060081b6000548c8c60405160200161076d959493929190611273565b60405160208183030381529060405290507f00000000000000000000000000000000000000000000000000000000000000006001600160a01b031663f7e83aee82848b8b6040516020016107c3939291906112ae565b6040516020818303038152906040526040518363ffffffff1660e01b81526004016107ef9291906112f4565b600060405180830381600087803b15801561080957600080fd5b505af115801561081d573d6000803e3d6000fd5b5050505050505050505050505050565b61083561086b565b6001600160a01b03811661085f57604051631e4fbdf760e01b8152600060048201526024016104e3565b61086881610898565b50565b6001546001600160a01b031633146103465760405163118cdaa760e01b81523360048201526024016104e3565b600180546001600160a01b038381166001600160a01b0319831681179093556040519116919082907f8be0079c531659141344cd1fd0a4f28419497f9722a3daafe3b4186f6b6457e090600090a35050565b60045460ff1661090d5760405163153745d360e01b815260040160405180910390fd5b6040808301516000908152600560205220541561093d57604051631165e35160e11b815260040160405180910390fd5b81602001516000036109625760405163f0c426db60e01b815260040160405180910390fd5b60208083015160009081526006909152604090205460ff161561099857604051630527264760e31b815260040160405180910390fd5b602080830180516040808601805160009081526005865282812093909355835183526006909452808220805460ff191660011790559251915192519192917fad6acfd310a8e8e3e0942ab383e1cc0eb70bd08613de2f8b2aca878a3de9eaf09190a35050565b600082610a0b8584610a66565b14949350505050565b604080516001600160a01b038416602482015260448082018490528251808303909101815260649091019091526020810180516001600160e01b031663a9059cbb60e01b179052610433908490610aab565b600081815b8451811015610aa157610a9782868381518110610a8a57610a8a611322565b6020026020010151610b22565b9150600101610a6b565b5090505b92915050565b600080602060008451602086016000885af180610ace576040513d6000823e3d81fd5b50506000513d91508115610ae6578060011415610af3565b6001600160a01b0384163b155b15610b1c57604051635274afe760e01b81526001600160a01b03851660048201526024016104e3565b50505050565b6000818310610b3e576000828152602084905260409020610b4d565b60008381526020839052604090205b9392505050565b600060208284031215610b6657600080fd5b5035919050565b634e487b7160e01b600052604160045260246000fd5b6040516101a081016001600160401b0381118282101715610ba657610ba6610b6d565b60405290565b604051601f8201601f191681016001600160401b0381118282101715610bd457610bd4610b6d565b604052919050565b60006001600160401b03821115610bf557610bf5610b6d565b50601f01601f191660200190565b600082601f830112610c1457600080fd5b8135610c27610c2282610bdc565b610bac565b818152846020838601011115610c3c57600080fd5b816020850160208301376000918101602001919091529392505050565b60008060408385031215610c6c57600080fd5b82356001600160401b03811115610c8257600080fd5b610c8e85828601610c03565b92505060208301356001600160401b03811115610caa57600080fd5b610cb685828601610c03565b9150509250929050565b600080600060608486031215610cd557600080fd5b833592506020840135915060408401356001600160401b03811115610cf957600080fd5b610d0586828701610c03565b9150509250925092565b60006001600160401b03821115610d2857610d28610b6d565b5060051b60200190565b600080600060608486031215610d4757600080fd5b833592506020840135915060408401356001600160401b03811115610d6b57600080fd5b8401601f81018613610d7c57600080fd5b8035610d8a610c2282610d0f565b8082825260208201915060208360051b850101925088831115610dac57600080fd5b6020840193505b82841015610dce578335825260209384019390910190610db3565b809450505050509250925092565b600060208284031215610dee57600080fd5b81356001600160a01b0381168114610b4d57600080fd5b60008083601f840112610e1757600080fd5b5081356001600160401b03811115610e2e57600080fd5b602083019150836020828501011115610e4657600080fd5b9250929050565b60008060008060408587031215610e6357600080fd5b84356001600160401b03811115610e7957600080fd5b610e8587828801610e05565b90955093505060208501356001600160401b03811115610ea457600080fd5b610eb087828801610e05565b95989497509550505050565b600082601f830112610ecd57600080fd5b610ed76080610bac565b806080840185811115610ee957600080fd5b845b81811015610f03578051845260209384019301610eeb565b509095945050505050565b60005b83811015610f29578181015183820152602001610f11565b50506000910152565b600082601f830112610f4357600080fd5b8151610f51610c2282610bdc565b818152846020838601011115610f6657600080fd5b610f77826020830160208701610f0e565b949350505050565b600082601f830112610f9057600080fd5b8151610f9e610c2282610d0f565b8082825260208201915060208360051b860101925085831115610fc057600080fd5b602085015b838110156110015780516001600160401b03811115610fe357600080fd5b610ff2886020838a0101610f32565b84525060209283019201610fc5565b5095945050505050565b600082601f83011261101c57600080fd5b6110266060610bac565b80606084018581111561103857600080fd5b845b81811015610f03578051801515811461105257600080fd5b84526020938401930161103a565b60006020828403121561107257600080fd5b81516001600160401b0381111561108857600080fd5b8201610240818503121561109b57600080fd5b6110a3610b83565b8151815260208083015190820152604080830151908201526110c88560608401610ebc565b606082015260e08201516001600160401b038111156110e657600080fd5b6110f286828501610f32565b6080830152506101008201516001600160401b0381111561111257600080fd5b61111e86828501610f7f565b60a0830152506101208201516001600160401b0381111561113e57600080fd5b61114a86828501610f32565b60c0830152506101408201516001600160401b0381111561116a57600080fd5b61117686828501610f32565b60e0830152506101608201516001600160401b0381111561119657600080fd5b6111a286828501610f32565b610100830152506101808201516001600160401b038111156111c357600080fd5b6111cf86828501610f32565b610120830152506101a08201516001600160401b038111156111f057600080fd5b6111fc86828501610f32565b610140830152506101c082015161016082015261121d856101e0840161100b565b610180820152949350505050565b6000808585111561123b57600080fd5b8386111561124857600080fd5b5050820193919092039150565b80356020831015610aa557600019602084900360031b1b1692915050565b60f886901b6001600160f81b031916815260ff1985166001820152602081018490528183604083013760009101604001908152949350505050565b838152818360208301376000910160200190815292915050565b600081518084526112e0816020860160208601610f0e565b601f01601f19169290920160200192915050565b60408152600061130760408301856112c8565b828103602084015261131981856112c8565b95945050505050565b634e487b7160e01b600052603260045260246000fdfea2646970667358221220d6d6ffa25e882ae9e3d14c16bcc86477ecbd74899106b935ca912e6adb115f7464736f6c634300081c0033",
  "linkReferences": {},
  "deployedLinkReferences": {}
}