{"abi":[{"type":"constructor","inputs":[{"name":"_ctf","type":"address","internalType":"address"},{"name":"_collateral","type":"address","internalType":"address"},{"name":"_vault","type":"address","internalType":"address"}],"stateMutability":"nonpayable"},{"type":"function","name":"FEE_DENOMINATOR","inputs":[],"outputs":[{"name":"","type":"uint256","internalType":"uint256"}],"stateMutability":"view"},{"type":"function","name":"NO_TOKEN_BURN_ADDRESS","inputs":[],"outputs":[{"name":"","type":"address","internalType":"address"}],"stateMutability":"view"},{"type":"function","name":"addAdmin","inputs":[{"name":"admin","type":"address","internalType":"address"}],"outputs":[],"stateMutability":"nonpayable"},{"type":"function","name":"admins","inputs":[{"name":"","type":"address","internalType":"address"}],"outputs":[{"name":"","type":"uint256","internalType":"uint256"}],"stateMutability":"view"},{"type":"function","name":"balanceOf","inputs":[{"name":"_owner","type":"address","internalType":"address"},{"name":"_id","type":"uint256","internalType":"uint256"}],"outputs":[{"name":"","type":"uint256","internalType":"uint256"}],"stateMutability":"view"},{"type":"function","name":"balanceOfBatch","inputs":[{"name":"_owners","type":"address[]","internalType":"address[]"},{"name":"_ids","type":"uint256[]","internalType":"uint256[]"}],"outputs":[{"name":"","type":"uint256[]","internalType":"uint256[]"}],"stateMutability":"view"},{"type":"function","name":"col","inputs":[],"outputs":[{"name":"","type":"address","internalType":"contract ERC20"}],"stateMutability":"view"},{"type":"function","name":"convertPositions","inputs":[{"name":"_marketId","type":"bytes32","internalType":"bytes32"},{"name":"_indexSet","type":"uint256","internalType":"uint256"},{"name":"_amount","type":"uint256","internalType":"uint256"}],"outputs":[],"stateMutability":"nonpayable"},{"type":"function","name":"ctf","inputs":[],"outputs":[{"name":"","type":"address","internalType":"contract IConditionalTokens"}],"stateMutability":"view"},{"type":"function","name":"getConditionId","inputs":[{"name":"_questionId","type":"bytes32","internalType":"bytes32"}],"outputs":[{"name":"","type":"bytes32","internalType":"bytes32"}],"stateMutability":"view"},{"type":"function","name":"getDetermined","inputs":[{"name":"_marketId","type":"bytes32","internalType":"bytes32"}],"outputs":[{"name":"","type":"bool","internalType":"bool"}],"stateMutability":"view"},{"type":"function","name":"getFeeBips","inputs":[{"name":"_marketId","type":"bytes32","internalType":"bytes32"}],"outputs":[{"name":"","type":"uint256","internalType":"uint256"}],"stateMutability":"view"},{"type":"function","name":"getMarketData","inputs":[{"name":"_marketId","type":"bytes32","internalType":"bytes32"}],"outputs":[{"name":"","type":"bytes32","internalType":"MarketData"}],"stateMutability":"view"},{"type":"function","name":"getOracle","inputs":[{"name":"_marketId","type":"bytes32","internalType":"bytes32"}],"outputs":[{"name":"","type":"address","internalType":"address"}],"stateMutability":"view"},{"type":"function","name":"getPositionId","inputs":[{"name":"_questionId","type":"bytes32","internalType":"bytes32"},{"name":"_outcome","type":"bool","internalType":"bool"}],"outputs":[{"name":"","type":"uint256","internalType":"uint256"}],"stateMutability":"view"},{"type":"function","name":"getQuestionCount","inputs":[{"name":"_marketId","type":"bytes32","internalType":"bytes32"}],"outputs":[{"name":"","type":"uint256","internalType":"uint256"}],"stateMutability":"view"},{"type":"function","name":"getResult","inputs":[{"name":"_marketId","type":"bytes32","internalType":"bytes32"}],"outputs":[{"name":"","type":"uint256","internalType":"uint256"}],"stateMutability":"view"},{"type":"function","name":"isAdmin","inputs":[{"name":"addr","type":"address","internalType":"address"}],"outputs":[{"name":"","type":"bool","internalType":"bool"}],"stateMutability":"view"},{"type":"function","name":"mergePositions","inputs":[{"name":"_collateralToken","type":"address","internalType":"address"},{"name":"","type":"bytes32","internalType":"bytes32"},{"name":"_conditionId","type":"bytes32","internalType":"bytes32"},{"name":"","type":"uint256[]","internalType":"uint256[]"},{"name":"_amount","type":"uint256","internalType":"uint256"}],"outputs":[],"stateMutability":"nonpayable"},{"type":"function","name":"mergePositions","inputs":[{"name":"_conditionId","type":"bytes32","internalType":"bytes32"},{"name":"_amount","type":"uint256","internalType":"uint256"}],"outputs":[],"stateMutability":"nonpayable"},{"type":"function","name":"onERC1155BatchReceived","inputs":[{"name":"","type":"address","internalType":"address"},{"name":"","type":"address","internalType":"address"},{"name":"","type":"uint256[]","internalType":"uint256[]"},{"name":"","type":"uint256[]","internalType":"uint256[]"},{"name":"","type":"bytes","internalType":"bytes"}],"outputs":[{"name":"","type":"bytes4","internalType":"bytes4"}],"stateMutability":"nonpayable"},{"type":"function","name":"onERC1155Received","inputs":[{"name":"","type":"address","internalType":"address"},{"name":"","type":"address","internalType":"address"},{"name":"","type":"uint256","internalType":"uint256"},{"name":"","type":"uint256","internalType":"uint256"},{"name":"","type":"bytes","internalType":"bytes"}],"outputs":[{"name":"","type":"bytes4","internalType":"bytes4"}],"stateMutability":"nonpayable"},{"type":"function","name":"prepareMarket","inputs":[{"name":"_feeBips","type":"uint256","internalType":"uint256"},{"name":"_metadata","type":"bytes","internalType":"bytes"}],"outputs":[{"name":"","type":"bytes32","internalType":"bytes32"}],"stateMutability":"nonpayable"},{"type":"function","name":"prepareQuestion","inputs":[{"name":"_marketId","type":"bytes32","internalType":"bytes32"},{"name":"_metadata","type":"bytes","internalType":"bytes"}],"outputs":[{"name":"","type":"bytes32","internalType":"bytes32"}],"stateMutability":"nonpayable"},{"type":"function","name":"redeemPositions","inputs":[{"name":"_conditionId","type":"bytes32","internalType":"bytes32"},{"name":"_amounts","type":"uint256[]","internalType":"uint256[]"}],"outputs":[],"stateMutability":"nonpayable"},{"type":"function","name":"removeAdmin","inputs":[{"name":"admin","type":"address","internalType":"address"}],"outputs":[],"stateMutability":"nonpayable"},{"type":"function","name":"renounceAdmin","inputs":[],"outputs":[],"stateMutability":"nonpayable"},{"type":"function","name":"reportOutcome","inputs":[{"name":"_questionId","type":"bytes32","internalType":"bytes32"},{"name":"_outcome","type":"bool","internalType":"bool"}],"outputs":[],"stateMutability":"nonpayable"},{"type":"function","name":"safeTransferFrom","inputs":[{"name":"_from","type":"address","internalType":"address"},{"name":"_to","type":"address","internalType":"address"},{"name":"_id","type":"uint256","internalType":"uint256"},{"name":"_value","type":"uint256","internalType":"uint256"},{"name":"_data","type":"bytes","internalType":"bytes"}],"outputs":[],"stateMutability":"nonpayable"},{"type":"function","name":"splitPosition","inputs":[{"name":"_collateralToken","type":"address","internalType":"address"},{"name":"","type":"bytes32","internalType":"bytes32"},{"name":"_conditionId","type":"bytes32","internalType":"bytes32"},{"name":"","type":"uint256[]","internalType":"uint256[]"},{"name":"_amount","type":"uint256","internalType":"uint256"}],"outputs":[],"stateMutability":"nonpayable"},{"type":"function","name":"splitPosition","inputs":[{"name":"_conditionId","type":"bytes32","internalType":"bytes32"},{"name":"_amount","type":"uint256","internalType":"uint256"}],"outputs":[],"stateMutability":"nonpayable"},{"type":"function","name":"vault","inputs":[],"outputs":[{"name":"","type":"address","internalType":"address"}],"stateMutability":"view"},{"type":"function","name":"wcol","inputs":[],"outputs":[{"name":"","type":"address","internalType":"contract WrappedCollateral"}],"stateMutability":"view"},{"type":"event","name":"MarketPrepared","inputs":[{"name":"marketId","type":"bytes32","indexed":true,"internalType":"bytes32"},{"name":"oracle","type":"address","indexed":true,"internalType":"address"},{"name":"feeBips","type":"uint256","indexed":false,"internalType":"uint256"},{"name":"data","type":"bytes","indexed":false,"internalType":"bytes"}],"anonymous":false},{"type":"event","name":"NewAdmin","inputs":[{"name":"admin","type":"address","indexed":true,"internalType":"address"},{"name":"newAdminAddress","type":"address","indexed":true,"internalType":"address"}],"anonymous":false},{"type":"event","name":"OutcomeReported","inputs":[{"name":"marketId","type":"bytes32","indexed":true,"internalType":"bytes32"},{"name":"questionId","type":"bytes32","indexed":true,"internalType":"bytes32"},{"name":"outcome","type":"bool","indexed":false,"internalType":"bool"}],"anonymous":false},{"type":"event","name":"PayoutRedemption","inputs":[{"name":"redeemer","type":"address","indexed":true,"internalType":"address"},{"name":"conditionId","type":"bytes32","indexed":true,"internalType":"bytes32"},{"name":"amounts","type":"uint256[]","indexed":false,"internalType":"uint256[]"},{"name":"payout","type":"uint256","indexed":false,"internalType":"uint256"}],"anonymous":false},{"type":"event","name":"PositionSplit","inputs":[{"name":"stakeholder","type":"address","indexed":true,"internalType":"address"},{"name":"conditionId","type":"bytes32","indexed":true,"internalType":"bytes32"},{"name":"amount","type":"uint256","indexed":false,"internalType":"uint256"}],"anonymous":false},{"type":"event","name":"PositionsConverted","inputs":[{"name":"stakeholder","type":"address","indexed":true,"internalType":"address"},{"name":"marketId","type":"bytes32","indexed":true,"internalType":"bytes32"},{"name":"indexSet","type":"uint256","indexed":true,"internalType":"uint256"},{"name":"amount","type":"uint256","indexed":false,"internalType":"uint256"}],"anonymous":false},{"type":"event","name":"PositionsMerge","inputs":[{"name":"stakeholder","type":"address","indexed":true,"internalType":"address"},{"name":"conditionId","type":"bytes32","indexed":true,"internalType":"bytes32"},{"name":"amount","type":"uint256","indexed":false,"internalType":"uint256"}],"anonymous":false},{"type":"event","name":"QuestionPrepared","inputs":[{"name":"marketId","type":"bytes32","indexed":true,"internalType":"bytes32"},{"name":"questionId","type":"bytes32","indexed":true,"internalType":"bytes32"},{"name":"index","type":"uint256","indexed":false,"internalType":"uint256"},{"name":"data","type":"bytes","indexed":false,"internalType":"bytes"}],"anonymous":false},{"type":"event","name":"RemovedAdmin","inputs":[{"name":"admin","type":"address","indexed":true,"internalType":"address"},{"name":"removedAdmin","type":"address","indexed":true,"internalType":"address"}],"anonymous":false},{"type":"error","name":"DeterminedFlagAlreadySet","inputs":[]},{"type":"error","name":"FeeBipsOutOfBounds","inputs":[]},{"type":"error","name":"IndexOutOfBounds","inputs":[]},{"type":"error","name":"InvalidIndexSet","inputs":[]},{"type":"error","name":"LengthMismatch","inputs":[]},{"type":"error","name":"MarketAlreadyDetermined","inputs":[]},{"type":"error","name":"MarketAlreadyPrepared","inputs":[]},{"type":"error","name":"MarketNotPrepared","inputs":[]},{"type":"error","name":"NoConvertiblePositions","inputs":[]},{"type":"error","name":"NotAdmin","inputs":[]},{"type":"error","name":"NotApprovedForAll","inputs":[]},{"type":"error","name":"OnlyOracle","inputs":[]},{"type":"error","name":"UnexpectedCollateralToken","inputs":[]}],"bytecode":{"object":"0x6101006040523480156200001257600080fd5b5060405162005ed038038062005ed083398101604081905262000035916200023b565b33600090815260016020818152604092839020919091556001600160a01b0385811660805284811660a081905290841660e052825163313ce56760e01b815292518593919263313ce56792600480820193918290030181865afa158015620000a1573d6000803e3d6000fd5b505050506040513d601f19601f82011682018060405250810190620000c7919062000285565b604051620000d59062000210565b6001600160a01b03909216825260ff166020820152604001604051809103906000f0801580156200010a573d6000803e3d6000fd5b506001600160a01b0390811660c081905260405163095ea7b360e01b8152918516600483015260001960248301529063095ea7b3906044016020604051808303816000875af115801562000162573d6000803e3d6000fd5b505050506040513d601f19601f82011682018060405250810190620001889190620002b1565b5060a05160c05160405163095ea7b360e01b81526001600160a01b039182166004820152600019602482015291169063095ea7b3906044016020604051808303816000875af1158015620001e0573d6000803e3d6000fd5b505050506040513d601f19601f82011682018060405250810190620002069190620002b1565b50505050620002d5565b61174d806200478383390190565b80516001600160a01b03811681146200023657600080fd5b919050565b6000806000606084860312156200025157600080fd5b6200025c846200021e565b92506200026c602085016200021e565b91506200027c604085016200021e565b90509250925092565b6000602082840312156200029857600080fd5b815160ff81168114620002aa57600080fd5b9392505050565b600060208284031215620002c457600080fd5b81518015158114620002aa57600080fd5b60805160a05160c05160e05161436a62000419600039600081816105ba015281816118e90152611aae0152600081816103e501528181610bc301528181610e8201528181610f3101528181610ff3015281816110cf015281816111cf015281816112810152818161158d015281816118c2015281816119ad01528181611c4301528181611d5501528181611e0201528181611ec00152612c2d01526000818161044d01528181610b0101528181610d7e0152610e250152600081816102750152818161062a015281816107ee015281816108b1015281816109c601528181610ef501528181610fb2015281816110f801528181611193015281816116dc0152818161179a01528181611a7101528181611b2d01528181611ca801528181611d1901528181611f980152818161211c015281816121fa0152612c06015261436a6000f3fe608060405234801561001057600080fd5b506004361061020a5760003560e01c80638a0db6151161012a578063bc197c81116100bd578063dbeccb231161008c578063f23a6e6111610071578063f23a6e6114610569578063f242432a146105a2578063fbfa77cf146105b557600080fd5b8063dbeccb2314610543578063e200affd1461055657600080fd5b8063bc197c81146104a8578063c64748c414610514578063d73792a914610527578063dafaf94a1461053057600080fd5b8063a78695b0116100f9578063a78695b014610448578063add4c7841461046f578063b10c5c1714610482578063b7f75d2c1461049557600080fd5b80638a0db615146104075780638bad0c0a1461041a5780639e7212ad14610422578063a3d7da1d1461043557600080fd5b8063429b62e5116101a2578063752b5ba511610171578063752b5ba51461039f5780637ad7fe36146103b25780637ae2e67b146103cd5780637e3b74c3146103e057600080fd5b8063429b62e5146103395780634e1273f414610359578063704802751461037957806372ce42751461038c57600080fd5b806322a9339f116101de57806322a9339f1461027057806324d7806c146102bc5780632582cb5e1461030657806330f4f4bb1461031957600080fd5b8062fdd58e1461020f57806304329c03146102355780631785f53c146102485780631d69b48d1461025d575b600080fd5b61022261021d3660046137d2565b6105dc565b6040519081526020015b60405180910390f35b6102226102433660046137fc565b61069f565b61025b610256366004613815565b610703565b005b61022261026b366004613879565b61079f565b6102977f000000000000000000000000000000000000000000000000000000000000000081565b60405173ffffffffffffffffffffffffffffffffffffffff909116815260200161022c565b6102f66102ca366004613815565b73ffffffffffffffffffffffffffffffffffffffff166000908152600160208190526040909120541490565b604051901515815260200161022c565b6102226103143660046137fc565b61096b565b6102226103273660046137fc565b60009081526020819052604090205490565b610222610347366004613815565b60016020526000908152604090205481565b61036c6103673660046139d2565b610986565b60405161022c9190613acd565b61025b610387366004613815565b610a60565b61025b61039a366004613b25565b610aff565b6102226103ad366004613ba6565b610b96565b61029773a5ef39c3d3e10d0b270233af41cac69796b1296681565b6102f66103db3660046137fc565b610c3f565b6102977f000000000000000000000000000000000000000000000000000000000000000081565b610222610415366004613879565b610c57565b61025b610cf7565b61025b610430366004613b25565b610d7c565b61025b610443366004613bd6565b610e0b565b6102977f000000000000000000000000000000000000000000000000000000000000000081565b61022261047d3660046137fc565b6110b0565b61025b610490366004613bd6565b6110c8565b6102226104a33660046137fc565b611330565b6104e36104b6366004613bf8565b7fbc197c810000000000000000000000000000000000000000000000000000000098975050505050505050565b6040517fffffffff00000000000000000000000000000000000000000000000000000000909116815260200161022c565b61025b610522366004613cb3565b611348565b61022261271081565b61029761053e3660046137fc565b611c28565b61025b610551366004613cdf565b611c3c565b61025b610564366004613ba6565b611f8c565b6104e3610577366004613d1e565b7ff23a6e61000000000000000000000000000000000000000000000000000000009695505050505050565b61025b6105b0366004613d1e565b612087565b6102977f000000000000000000000000000000000000000000000000000000000000000081565b6040517efdd58e00000000000000000000000000000000000000000000000000000000815273ffffffffffffffffffffffffffffffffffffffff8381166004830152602482018390526000917f00000000000000000000000000000000000000000000000000000000000000009091169062fdd58e90604401602060405180830381865afa158015610672573d6000803e3d6000fd5b505050506040513d601f19601f820116820180604052508101906106969190613d96565b90505b92915050565b604080513060601b7fffffffffffffffffffffffffffffffffffffffff000000000000000000000000166020808301919091526034820184905260026054808401919091528351808403909101815260749092019092528051910120600090610699565b336000908152600160208190526040909120541461074d576040517f7bfa4b9f00000000000000000000000000000000000000000000000000000000815260040160405180910390fd5b73ffffffffffffffffffffffffffffffffffffffff81166000818152600160205260408082208290555133917f787a2e12f4a55b658b8f573c32432ee11a5e8b51677d1e1e937aaf6a0bb5776e91a350565b60008060006107ad86612273565b9150915060006107bc8361069f565b6040517fd42dc0c2000000000000000000000000000000000000000000000000000000008152600481018290529091507f000000000000000000000000000000000000000000000000000000000000000073ffffffffffffffffffffffffffffffffffffffff169063d42dc0c290602401602060405180830381865afa15801561084a573d6000803e3d6000fd5b505050506040513d601f19601f8201168201806040525081019061086e9190613d96565b600003610923576040517fd96ee75400000000000000000000000000000000000000000000000000000000815230600482015260248101849052600260448201527f000000000000000000000000000000000000000000000000000000000000000073ffffffffffffffffffffffffffffffffffffffff169063d96ee75490606401600060405180830381600087803b15801561090a57600080fd5b505af115801561091e573d6000803e3d6000fd5b505050505b82877faac410f87d423a922a7b226ac68f0c2eaf5bf6d15e644ac0758c7f96e2c253f784898960405161095893929190613df8565b60405180910390a3509095945050505050565b60008181526020819052604081205460d81c61ffff16610699565b6040517f4e1273f400000000000000000000000000000000000000000000000000000000815260609073ffffffffffffffffffffffffffffffffffffffff7f00000000000000000000000000000000000000000000000000000000000000001690634e1273f4906109fd9086908690600401613e12565b600060405180830381865afa158015610a1a573d6000803e3d6000fd5b505050506040513d6000823e601f3d9081017fffffffffffffffffffffffffffffffffffffffffffffffffffffffffffffffe01682016040526106969190810190613e7f565b3360009081526001602081905260409091205414610aaa576040517f7bfa4b9f00000000000000000000000000000000000000000000000000000000815260040160405180910390fd5b73ffffffffffffffffffffffffffffffffffffffff81166000818152600160208190526040808320919091555133917ff9ffabca9c8276e99321725bcb43fb076a6c66a54b7f21c4e8146d8519b417dc91a350565b7f000000000000000000000000000000000000000000000000000000000000000073ffffffffffffffffffffffffffffffffffffffff168673ffffffffffffffffffffffffffffffffffffffff1614610b84576040517f155a4b5c00000000000000000000000000000000000000000000000000000000815260040160405180910390fd5b610b8e8482610e0b565b505050505050565b600080610bbd81610ba68661069f565b85610bb2576002610bb5565b60015b60ff16612358565b604080517f000000000000000000000000000000000000000000000000000000000000000060601b7fffffffffffffffffffffffffffffffffffffffff00000000000000000000000016602080830191909152603480830185905283518084039091018152605490920190925280519101209091506000905b95945050505050565b600081815260208190526040812054610699906127ba565b600080610c9a8585858080601f0160208091040260200160405190810160405280939291908181526020018383808284376000920191909152506127f992505050565b90503373ffffffffffffffffffffffffffffffffffffffff16817ff059ab16d1ca60e123eab60e3c02b68faf060347c701a5d14885a8e1def7b3a8878787604051610ce793929190613df8565b60405180910390a3949350505050565b3360009081526001602081905260409091205414610d41576040517f7bfa4b9f00000000000000000000000000000000000000000000000000000000815260040160405180910390fd5b336000818152600160205260408082208290555182917f787a2e12f4a55b658b8f573c32432ee11a5e8b51677d1e1e937aaf6a0bb5776e91a3565b7f000000000000000000000000000000000000000000000000000000000000000073ffffffffffffffffffffffffffffffffffffffff168673ffffffffffffffffffffffffffffffffffffffff1614610e01576040517f155a4b5c00000000000000000000000000000000000000000000000000000000815260040160405180910390fd5b610b8e84826110c8565b610e4d73ffffffffffffffffffffffffffffffffffffffff7f0000000000000000000000000000000000000000000000000000000000000000163330846128f7565b6040517fbf376c7a000000000000000000000000000000000000000000000000000000008152306004820152602481018290527f000000000000000000000000000000000000000000000000000000000000000073ffffffffffffffffffffffffffffffffffffffff169063bf376c7a90604401600060405180830381600087803b158015610edb57600080fd5b505af1158015610eef573d6000803e3d6000fd5b505050507f000000000000000000000000000000000000000000000000000000000000000073ffffffffffffffffffffffffffffffffffffffff166372ce42757f00000000000000000000000000000000000000000000000000000000000000006000801b85610f5d6129e9565b866040518663ffffffff1660e01b8152600401610f7e959493929190613f10565b600060405180830381600087803b158015610f9857600080fd5b505af1158015610fac573d6000803e3d6000fd5b505050507f000000000000000000000000000000000000000000000000000000000000000073ffffffffffffffffffffffffffffffffffffffff16632eb2c2d630336110187f000000000000000000000000000000000000000000000000000000000000000087612a54565b611023600287612b57565b6040518563ffffffff1660e01b81526004016110429493929190613f5d565b600060405180830381600087803b15801561105c57600080fd5b505af1158015611070573d6000803e3d6000fd5b50506040518381528492503391507fbbed930dbfb7907ae2d60ddf78345610214f26419a0128df39b6cc3d9e5df9b0906020015b60405180910390a35050565b60008181526020819052604081205461069990612bd9565b60006110f47f000000000000000000000000000000000000000000000000000000000000000084612a54565b90507f000000000000000000000000000000000000000000000000000000000000000073ffffffffffffffffffffffffffffffffffffffff16632eb2c2d6333084611140600288612b57565b6040518563ffffffff1660e01b815260040161115f9493929190613f5d565b600060405180830381600087803b15801561117957600080fd5b505af115801561118d573d6000803e3d6000fd5b505050507f000000000000000000000000000000000000000000000000000000000000000073ffffffffffffffffffffffffffffffffffffffff16639e7212ad7f00000000000000000000000000000000000000000000000000000000000000006000801b866111fb6129e9565b876040518663ffffffff1660e01b815260040161121c959493929190613f10565b600060405180830381600087803b15801561123657600080fd5b505af115801561124a573d6000803e3d6000fd5b50506040517f39f47693000000000000000000000000000000000000000000000000000000008152336004820152602481018590527f000000000000000000000000000000000000000000000000000000000000000073ffffffffffffffffffffffffffffffffffffffff1692506339f476939150604401600060405180830381600087803b1580156112dc57600080fd5b505af11580156112f0573d6000803e3d6000fd5b50506040518481528592503391507fba33ac50d8894676597e6e35dc09cff59854708b642cd069d21eb9c7ca072a049060200160405180910390a3505050565b60008181526020819052604081205461069990612be6565b6000838152602081905260408120549061136182612be6565b905073ffffffffffffffffffffffffffffffffffffffff82166113b0576040517fb664949500000000000000000000000000000000000000000000000000000000815260040160405180910390fd5b600181116113ea576040517f24f2dfe700000000000000000000000000000000000000000000000000000000815260040160405180910390fd5b83600003611424576040517f9667d38100000000000000000000000000000000000000000000000000000000815260040160405180910390fd5b83811c1561145e576040517f9667d38100000000000000000000000000000000000000000000000000000000815260040160405180910390fd5b8260000361146d575050505050565b6000805b82821015611493576001821b861615611488576001015b816001019150611471565b600061149f8285613ff4565b905060008267ffffffffffffffff8111156114bc576114bc6138c5565b6040519080825280602002602001820160405280156114e5578160200160208202803683370190505b50905060008267ffffffffffffffff811115611503576115036138c5565b60405190808252806020026020018201604052801561152c578160200160208202803683370190505b50905060008367ffffffffffffffff81111561154a5761154a6138c5565b604051908082528060200260200182016040528015611573578160200160208202803683370190505b50905073ffffffffffffffffffffffffffffffffffffffff7f00000000000000000000000000000000000000000000000000000000000000001663a0712d686115bc8b87614007565b6040518263ffffffff1660e01b81526004016115da91815260200190565b600060405180830381600087803b1580156115f457600080fd5b505af1158015611608573d6000803e3d6000fd5b50505050600080600097505b888810156116d85760ff88168d016001891b8d161561166157611638816000610b96565b86848151811061164a5761164a61401e565b6020026020010181815250508260010192506116cc565b61166c816001610b96565b85838151811061167e5761167e61401e565b602002602001018181525050611695816000610b96565b8483815181106116a7576116a761401e565b6020026020010181815250506116c56116bf8261069f565b8d612bef565b8160010191505b88600101985050611614565b50507f000000000000000000000000000000000000000000000000000000000000000073ffffffffffffffffffffffffffffffffffffffff16632eb2c2d6337fa5ef39c3d3e10d0b270233af41cac69796b12966b80367e2fe6c6f7041543fbf60601c8661174788518f612b57565b6040518563ffffffff1660e01b81526004016117669493929190613f5d565b600060405180830381600087803b15801561178057600080fd5b505af1158015611794573d6000803e3d6000fd5b505050507f000000000000000000000000000000000000000000000000000000000000000073ffffffffffffffffffffffffffffffffffffffff16632eb2c2d6307fa5ef39c3d3e10d0b270233af41cac69796b12966b80367e2fe6c6f7041543fbf60601c84611804898f612b57565b6040518563ffffffff1660e01b81526004016118239493929190613f5d565b600060405180830381600087803b15801561183d57600080fd5b505af1158015611851573d6000803e3d6000fd5b506000925061271091505060d88a901c61ffff1661186f908c614007565b611879919061407c565b90506000611887828c613ff4565b9050600185511115611a62576000600186516118a39190613ff4565b905082156119965773ffffffffffffffffffffffffffffffffffffffff7f000000000000000000000000000000000000000000000000000000000000000016630357371d7f00000000000000000000000000000000000000000000000000000000000000006119128685614007565b6040517fffffffff0000000000000000000000000000000000000000000000000000000060e085901b16815273ffffffffffffffffffffffffffffffffffffffff90921660048301526024820152604401600060405180830381600087803b15801561197d57600080fd5b505af1158015611991573d6000803e3d6000fd5b505050505b73ffffffffffffffffffffffffffffffffffffffff7f000000000000000000000000000000000000000000000000000000000000000016630357371d336119dd8585614007565b6040517fffffffff0000000000000000000000000000000000000000000000000000000060e085901b16815273ffffffffffffffffffffffffffffffffffffffff90921660048301526024820152604401600060405180830381600087803b158015611a4857600080fd5b505af1158015611a5c573d6000803e3d6000fd5b50505050505b835115611bc7578115611b2b577f000000000000000000000000000000000000000000000000000000000000000073ffffffffffffffffffffffffffffffffffffffff16632eb2c2d6307f000000000000000000000000000000000000000000000000000000000000000087611ad9895188612b57565b6040518563ffffffff1660e01b8152600401611af89493929190613f5d565b600060405180830381600087803b158015611b1257600080fd5b505af1158015611b26573d6000803e3d6000fd5b505050505b7f000000000000000000000000000000000000000000000000000000000000000073ffffffffffffffffffffffffffffffffffffffff16632eb2c2d6303387611b75895187612b57565b6040518563ffffffff1660e01b8152600401611b949493929190613f5d565b600060405180830381600087803b158015611bae57600080fd5b505af1158015611bc2573d6000803e3d6000fd5b505050505b8b8d3373ffffffffffffffffffffffffffffffffffffffff167fb03d19dddbc72a87e735ff0ea3b57bef133ebe44e1894284916a84044deb367e8e604051611c1191815260200190565b60405180910390a450505050505050505050505050565b600081815260208190526040812054610699565b6000611c687f000000000000000000000000000000000000000000000000000000000000000085612a54565b6040517f2eb2c2d600000000000000000000000000000000000000000000000000000000815290915073ffffffffffffffffffffffffffffffffffffffff7f00000000000000000000000000000000000000000000000000000000000000001690632eb2c2d690611ce590339030908690899089906004016140db565b600060405180830381600087803b158015611cff57600080fd5b505af1158015611d13573d6000803e3d6000fd5b505050507f000000000000000000000000000000000000000000000000000000000000000073ffffffffffffffffffffffffffffffffffffffff166301b7037c7f00000000000000000000000000000000000000000000000000000000000000006000801b87611d816129e9565b6040518563ffffffff1660e01b8152600401611da09493929190614145565b600060405180830381600087803b158015611dba57600080fd5b505af1158015611dce573d6000803e3d6000fd5b50506040517f70a08231000000000000000000000000000000000000000000000000000000008152306004820152600092507f000000000000000000000000000000000000000000000000000000000000000073ffffffffffffffffffffffffffffffffffffffff1691506370a0823190602401602060405180830381865afa158015611e5f573d6000803e3d6000fd5b505050506040513d601f19601f82011682018060405250810190611e839190613d96565b90508015611f32576040517f39f47693000000000000000000000000000000000000000000000000000000008152336004820152602481018290527f000000000000000000000000000000000000000000000000000000000000000073ffffffffffffffffffffffffffffffffffffffff16906339f4769390604401600060405180830381600087803b158015611f1957600080fd5b505af1158015611f2d573d6000803e3d6000fd5b505050505b843373ffffffffffffffffffffffffffffffffffffffff167f9140a6a270ef945260c03894b3c6b3b2695e9d5101feef0ff24fec960cfd3224868685604051611f7d93929190614180565b60405180910390a35050505050565b611f968282612ca6565b7f000000000000000000000000000000000000000000000000000000000000000073ffffffffffffffffffffffffffffffffffffffff1663c49298ac83611fdc84612e26565b6040518363ffffffff1660e01b8152600401611ff99291906141a4565b600060405180830381600087803b15801561201357600080fd5b505af1158015612027573d6000803e3d6000fd5b5050505081612055837fffffffffffffffffffffffffffffffffffffffffffffffffffffffffffffff001690565b60405183151581527f9e9fa7fd355160bd4cd3f22d4333519354beff1f5689bde87f2c5e63d8d484b2906020016110a4565b33600090815260016020819052604090912054146120d1576040517f7bfa4b9f00000000000000000000000000000000000000000000000000000000815260040160405180910390fd5b6040517fe985e9c500000000000000000000000000000000000000000000000000000000815273ffffffffffffffffffffffffffffffffffffffff87811660048301523360248301527f0000000000000000000000000000000000000000000000000000000000000000169063e985e9c590604401602060405180830381865afa158015612163573d6000803e3d6000fd5b505050506040513d601f19601f8201168201806040525081019061218791906141c5565b6121bd576040517fcd7769ff00000000000000000000000000000000000000000000000000000000815260040160405180910390fd5b6040517ff242432a00000000000000000000000000000000000000000000000000000000815273ffffffffffffffffffffffffffffffffffffffff7f0000000000000000000000000000000000000000000000000000000000000000169063f242432a90612239908990899089908990899089906004016141e2565b600060405180830381600087803b15801561225357600080fd5b505af1158015612267573d6000803e3d6000fd5b50505050505050505050565b60008181526020819052604081205481908073ffffffffffffffffffffffffffffffffffffffff81166122d2576040517fb664949500000000000000000000000000000000000000000000000000000000815260040160405180910390fd5b73ffffffffffffffffffffffffffffffffffffffff81163314612321576040517f80fee10500000000000000000000000000000000000000000000000000000000815260040160405180910390fd5b61232a82612be6565b925060ff83168501935061233d82612eb2565b60009586526020869052604090952094909455509092909150565b6000808383604051602001612377929190918252602082015260400190565b604080517fffffffffffffffffffffffffffffffffffffffffffffffffffffffffffffffe08184030181529190528051602090910120905060ff81901c15156000805b7f30644e72e131a029b85045b68181585d97816a916871ca8d3c208c16d87cfd476001850893507f30644e72e131a029b85045b68181585d97816a916871ca8d3c208c16d87cfd4760037f30644e72e131a029b85045b68181585d97816a916871ca8d3c208c16d87cfd4780878809870908905061243781612ee6565b9150807f30644e72e131a029b85045b68181585d97816a916871ca8d3c208c16d87cfd47838409036123ba578280156124785750612476600283614234565b155b806124965750821580156124965750612492600283614234565b6001145b156124c8576124c5827f30644e72e131a029b85045b68181585d97816a916871ca8d3c208c16d87cfd47613ff4565b91505b8780156127755760fe81901c151593507f3fffffffffffffffffffffffffffffffffffffffffffffffffffffffffffffff167f30644e72e131a029b85045b68181585d97816a916871ca8d3c208c16d87cfd4760037f30644e72e131a029b85045b68181585d97816a916871ca8d3c208c16d87cfd47808485098409089150600061255283612ee6565b90508480156125695750612567600282614234565b155b806125875750841580156125875750612583600282614234565b6001145b156125b9576125b6817f30644e72e131a029b85045b68181585d97816a916871ca8d3c208c16d87cfd47613ff4565b90505b827f30644e72e131a029b85045b68181585d97816a916871ca8d3c208c16d87cfd478283091461264a576040517f08c379a000000000000000000000000000000000000000000000000000000000815260206004820152601c60248201527f696e76616c696420706172656e7420636f6c6c656374696f6e2049440000000060448201526064015b60405180910390fd5b60408051602081018890529081018590526060810183905260808101829052600090819060069060a001604080517fffffffffffffffffffffffffffffffffffffffffffffffffffffffffffffffe0818403018152908290526126ac9161426c565b600060405180830381855afa9150503d80600081146126e7576040519150601f19603f3d011682016040523d82523d6000602084013e6126ec565b606091505b509150915081612758576040517f08c379a000000000000000000000000000000000000000000000000000000000815260206004820152600c60248201527f6563616464206661696c656400000000000000000000000000000000000000006044820152606401612641565b8080602001905181019061276c9190614288565b90985095505050505b612780600284614234565b6001036127ad577f4000000000000000000000000000000000000000000000000000000000000000851894505b5092979650505050505050565b60008160011a60f81b7fff0000000000000000000000000000000000000000000000000000000000000016156127f1576001610699565b600092915050565b60003361280781858561369d565b6000818152602081905260408120549193508173ffffffffffffffffffffffffffffffffffffffff1614612867576040517fd2b4c0c600000000000000000000000000000000000000000000000000000000815260040160405180910390fd5b6127108511156128a3576040517ffc520af500000000000000000000000000000000000000000000000000000000815260040160405180910390fd5b73ffffffffffffffffffffffffffffffffffffffff82167cffff00000000000000000000000000000000000000000000000000000060d887901b161760008481526020819052604090205550909392505050565b60006040517f23b872dd00000000000000000000000000000000000000000000000000000000815273ffffffffffffffffffffffffffffffffffffffff8516600482015273ffffffffffffffffffffffffffffffffffffffff841660248201528260448201526020600060648360008a5af13d15601f3d11600160005114161716915050806129e2576040517f08c379a000000000000000000000000000000000000000000000000000000000815260206004820152601460248201527f5452414e534645525f46524f4d5f4641494c45440000000000000000000000006044820152606401612641565b5050505050565b60408051600280825260608083018452926000929190602083019080368337019050509050600181600081518110612a2357612a2361401e565b602002602001018181525050600281600181518110612a4457612a4461401e565b6020908102919091010152919050565b60408051600280825260608083018452926000929190602083019080368337019050509050612b0384612a8a6000866001612358565b6040517fffffffffffffffffffffffffffffffffffffffff000000000000000000000000606084901b16602082015260348101829052600090605401604080517fffffffffffffffffffffffffffffffffffffffffffffffffffffffffffffffe081840301815291905280516020909101209392505050565b81600081518110612b1657612b1661401e565b6020908102919091010152612b3284612a8a6000866002612358565b81600181518110612b4557612b4561401e565b60209081029190910101529392505050565b606060008367ffffffffffffffff811115612b7457612b746138c5565b604051908082528060200260200182016040528015612b9d578160200160208202803683370190505b50905060005b84811015612bd15783828281518110612bbe57612bbe61401e565b6020908102919091010152600101612ba3565b509392505050565b60008160025b1a92915050565b60008181612bdf565b73ffffffffffffffffffffffffffffffffffffffff7f0000000000000000000000000000000000000000000000000000000000000000166372ce42757f0000000000000000000000000000000000000000000000000000000000000000600085612c576129e9565b866040518663ffffffff1660e01b8152600401612c78959493929190613f10565b600060405180830381600087803b158015612c9257600080fd5b505af1158015610b8e573d6000803e3d6000fd5b7fffffffffffffffffffffffffffffffffffffffffffffffffffffffffffffff00821660008181526020819052604090205460ff8416908073ffffffffffffffffffffffffffffffffffffffff8116612d2b576040517fb664949500000000000000000000000000000000000000000000000000000000815260040160405180910390fd5b73ffffffffffffffffffffffffffffffffffffffff81163314612d7a576040517f80fee10500000000000000000000000000000000000000000000000000000000815260040160405180910390fd5b612d8382612be6565b8310612dbb576040517f4e23d03500000000000000000000000000000000000000000000000000000000815260040160405180910390fd5b841515600103610b8e57612dce826127ba565b15612e05576040517fe3b0238900000000000000000000000000000000000000000000000000000000815260040160405180910390fd5b612e0f82846136f7565b600085815260208190526040902055505050505050565b6040805160028082526060808301845292600092919060208301908036833701905050905082612e57576000612e5a565b60015b60ff1681600081518110612e7057612e7061401e565b60200260200101818152505082612e88576001612e8b565b60005b60ff1681600181518110612ea157612ea161401e565b602090810291909101015292915050565b600081612edf7f0100000000000000000000000000000000000000000000000000000000000000826142ac565b9392505050565b60007f30644e72e131a029b85045b68181585d97816a916871ca8d3c208c16d87cfd47808380099150808283098181820990508181840992508183850993508184840992508183840990508181820982818309905082818209905082818209905082818309915082828609945082858609915082828309915082828509935082848509915082828309915082828309915082828509915082828609945082858609915082828309915082828309915082828609915082828509935082848609945082858609915082828309915082828509935082848509915082828309905082818209905082818209905082818309915082828609945082858509935082848509915082828309915082828309915082828609945082858609915082828309915082828609915082828309915082828309915082828609915082828509935082848509915082828309905082818209905082818309905082818509905082818209905082818209905082818209905082818209905082818309915082828609945082858609915082828609915082828509935082848509915082828509915082828309915082828309905082818309905082818209838182099050838182099050838182099050838182099050838183099150508281830991508282860994508285850993508284850991508282860994508285850993508284860994508285850993508284860994508285860991508282860991508282830991508282850993508284850991508282830991508282860994508285850993508284850991508282850991508282860994508285850993508284860994508285850993508284850991508282830991508282850991508282860994508285860991508282860991508282850993508284860994508285850993508284860994508285850993508284850991508282850991508282830991508282860994508285850993508284850991508282850991508282830991508282860994508285860991508282830990508281820990508281830990508281860990508281820990508281820990508281820990508281820990508281830991508282850993508284860994508285850993508284860994508285860991508282860991508282830991508282830991508282830991508282860991508282850993508284850991508282850991508282830991508282860994508285860991508282860991508282850993508284860994508285860991508282830991508282850993508284860994508285860991508282850993508284860994508285850993508284850991508282850991508282860994508285850993508284850991508282850991508282830991508282830991508282860994508285860991508282830991508282830991508282860991508282850993508284860994508285860991508282860990508281820990508281820990508281830991508282850993508284850991508282860994508285850993508284860994508285850993508284860994508285850993508284850991508282850990508281850991508282830991508282830991508282820991505081818509935081848409925081838509935081848409925081838509935081848509905081818509905081818409925050808284099250808384099250808384099250808384099250808384099250808384099250808384099250808384099250808384099250808384099250808384099250808384099250808384099250808384099250808384099250808384099250808384099250808384099250808384099250808384099250808384099250808384099250808384099250808384099250808384099250808384099250808384099250808384099250808384099250808384099250808384099250808384099250808384099250808384099250808384099250808384099250808384099250808384099250808384099250808384099250808384099250808384099250808384099250808384099250808384099250808384099250808384099250808384099250808384099250808384099250808384099250808384099250808384099250808384099250808384099250808384099250808384099250808384099250808384099250808384099250808384099250808384099250808384099250808384099250808384099250808384099250808384099250808384099250808384099250808384099250808384099250808384099250808384099250808384099250808384099250808384099250808384099250808384099250808384099250808384099250808384099250808384099250808384099250808384099250808384099250808384099250808384099250808384099250808384099250808384099250808384099250808384099250808384099250808384099250808384099250808384099250808384099250808384099250808384099250808384099250808384099250808384099250808384099250808384099250808384099250808384099250808384099250808384099250808384099250808384099250808384099250808384099250808384099250808384099250808384099250808384099250808384099250808384099250808384099250808384099250808384099250808384099250808384099250808384099250808384099250808384099250808384099250808383099392505050565b6040516000907fffffffffffffffffffffffffffffffffffffffffffffffffffffffffffffff00906136d7908690869086906020016142bf565b604051602081830303815290604052805190602001201690509392505050565b6000828060011a60f81b7fff00000000000000000000000000000000000000000000000000000000000000161561375a576040517fb36eb03600000000000000000000000000000000000000000000000000000000815260040160405180910390fd5b7dff000000000000000000000000000000000000000000000000000000000060e884901b16177e0100000000000000000000000000000000000000000000000000000000000017905092915050565b803573ffffffffffffffffffffffffffffffffffffffff811681146137cd57600080fd5b919050565b600080604083850312156137e557600080fd5b6137ee836137a9565b946020939093013593505050565b60006020828403121561380e57600080fd5b5035919050565b60006020828403121561382757600080fd5b610696826137a9565b60008083601f84011261384257600080fd5b50813567ffffffffffffffff81111561385a57600080fd5b60208301915083602082850101111561387257600080fd5b9250929050565b60008060006040848603121561388e57600080fd5b83359250602084013567ffffffffffffffff8111156138ac57600080fd5b6138b886828701613830565b9497909650939450505050565b7f4e487b7100000000000000000000000000000000000000000000000000000000600052604160045260246000fd5b604051601f82017fffffffffffffffffffffffffffffffffffffffffffffffffffffffffffffffe016810167ffffffffffffffff8111828210171561393b5761393b6138c5565b604052919050565b600067ffffffffffffffff82111561395d5761395d6138c5565b5060051b60200190565b600082601f83011261397857600080fd5b8135602061398d61398883613943565b6138f4565b82815260059290921b840181019181810190868411156139ac57600080fd5b8286015b848110156139c757803583529183019183016139b0565b509695505050505050565b600080604083850312156139e557600080fd5b823567ffffffffffffffff808211156139fd57600080fd5b818501915085601f830112613a1157600080fd5b81356020613a2161398883613943565b82815260059290921b84018101918181019089841115613a4057600080fd5b948201945b83861015613a6557613a56866137a9565b82529482019490820190613a45565b96505086013592505080821115613a7b57600080fd5b50613a8885828601613967565b9150509250929050565b600081518084526020808501945080840160005b83811015613ac257815187529582019590820190600101613aa6565b509495945050505050565b6020815260006106966020830184613a92565b60008083601f840112613af257600080fd5b50813567ffffffffffffffff811115613b0a57600080fd5b6020830191508360208260051b850101111561387257600080fd5b60008060008060008060a08789031215613b3e57600080fd5b613b47876137a9565b95506020870135945060408701359350606087013567ffffffffffffffff811115613b7157600080fd5b613b7d89828a01613ae0565b979a9699509497949695608090950135949350505050565b8015158114613ba357600080fd5b50565b60008060408385031215613bb957600080fd5b823591506020830135613bcb81613b95565b809150509250929050565b60008060408385031215613be957600080fd5b50508035926020909101359150565b60008060008060008060008060a0898b031215613c1457600080fd5b613c1d896137a9565b9750613c2b60208a016137a9565b9650604089013567ffffffffffffffff80821115613c4857600080fd5b613c548c838d01613ae0565b909850965060608b0135915080821115613c6d57600080fd5b613c798c838d01613ae0565b909650945060808b0135915080821115613c9257600080fd5b50613c9f8b828c01613830565b999c989b5096995094979396929594505050565b600080600060608486031215613cc857600080fd5b505081359360208301359350604090920135919050565b600080600060408486031215613cf457600080fd5b83359250602084013567ffffffffffffffff811115613d1257600080fd5b6138b886828701613ae0565b60008060008060008060a08789031215613d3757600080fd5b613d40876137a9565b9550613d4e602088016137a9565b94506040870135935060608701359250608087013567ffffffffffffffff811115613d7857600080fd5b613d8489828a01613830565b979a9699509497509295939492505050565b600060208284031215613da857600080fd5b5051919050565b8183528181602085013750600060208284010152600060207fffffffffffffffffffffffffffffffffffffffffffffffffffffffffffffffe0601f840116840101905092915050565b838152604060208201526000610c36604083018486613daf565b604080825283519082018190526000906020906060840190828701845b82811015613e6157815173ffffffffffffffffffffffffffffffffffffffff1684529284019290840190600101613e2f565b50505083810382850152613e758186613a92565b9695505050505050565b60006020808385031215613e9257600080fd5b825167ffffffffffffffff811115613ea957600080fd5b8301601f81018513613eba57600080fd5b8051613ec861398882613943565b81815260059190911b82018301908381019087831115613ee757600080fd5b928401925b82841015613f0557835182529284019290840190613eec565b979650505050505050565b73ffffffffffffffffffffffffffffffffffffffff8616815284602082015283604082015260a060608201526000613f4b60a0830185613a92565b90508260808301529695505050505050565b600073ffffffffffffffffffffffffffffffffffffffff808716835280861660208401525060a06040830152613f9660a0830185613a92565b8281036060840152613fa88185613a92565b838103608090940193909352505060008152602001949350505050565b7f4e487b7100000000000000000000000000000000000000000000000000000000600052601160045260246000fd5b8181038181111561069957610699613fc5565b808202811582820484141761069957610699613fc5565b7f4e487b7100000000000000000000000000000000000000000000000000000000600052603260045260246000fd5b7f4e487b7100000000000000000000000000000000000000000000000000000000600052601260045260246000fd5b60008261408b5761408b61404d565b500490565b81835260007f07ffffffffffffffffffffffffffffffffffffffffffffffffffffffffffffff8311156140c257600080fd5b8260051b80836020870137939093016020019392505050565b600073ffffffffffffffffffffffffffffffffffffffff808816835280871660208401525060a0604083015261411460a0830186613a92565b8281036060840152614127818587614090565b83810360809094019390935250506000815260200195945050505050565b73ffffffffffffffffffffffffffffffffffffffff85168152836020820152826040820152608060608201526000613e756080830184613a92565b604081526000614194604083018587614090565b9050826020830152949350505050565b8281526040602082015260006141bd6040830184613a92565b949350505050565b6000602082840312156141d757600080fd5b8151612edf81613b95565b600073ffffffffffffffffffffffffffffffffffffffff808916835280881660208401525085604083015284606083015260a0608083015261422860a083018486613daf565b98975050505050505050565b6000826142435761424361404d565b500690565b60005b8381101561426357818101518382015260200161424b565b50506000910152565b6000825161427e818460208701614248565b9190910192915050565b6000806040838503121561429b57600080fd5b505080516020909101519092909150565b8082018082111561069957610699613fc5565b73ffffffffffffffffffffffffffffffffffffffff841681528260208201526060604082015260008251806060840152614300816080850160208701614248565b601f017fffffffffffffffffffffffffffffffffffffffffffffffffffffffffffffffe0169190910160800194935050505056fea2646970667358221220cb002f701e1383f3770988bb92900d67a44a83a2d126941d16180c38af3bdf6664736f6c634300081300336101206040523480156200001257600080fd5b506040516200174d3803806200174d83398101604081905262000035916200016e565b6040518060400160405280601281526020017115dc985c1c19590810dbdb1b185d195c985b60721b8152506040518060400160405280600481526020016315d0d3d360e21b8152508282600090816200008f919062000262565b5060016200009e838262000262565b5060ff81166080524660a052620000b4620000d2565b60c05250503360e05250506001600160a01b031661010052620003ac565b60007f8b73c3c69bb8fe3d512ecc4cf759cc79239f7b179b0ffacaa9a75d522b39400f60006040516200010691906200032e565b6040805191829003822060208301939093528101919091527fc89efdaa54c0f20c7adf612882df0950f5a951637e0307cdcb4c672f298b8bc660608201524660808201523060a082015260c00160405160208183030381529060405280519060200120905090565b600080604083850312156200018257600080fd5b82516001600160a01b03811681146200019a57600080fd5b602084015190925060ff81168114620001b257600080fd5b809150509250929050565b634e487b7160e01b600052604160045260246000fd5b600181811c90821680620001e857607f821691505b6020821081036200020957634e487b7160e01b600052602260045260246000fd5b50919050565b601f8211156200025d57600081815260208120601f850160051c81016020861015620002385750805b601f850160051c820191505b81811015620002595782815560010162000244565b5050505b505050565b81516001600160401b038111156200027e576200027e620001bd565b62000296816200028f8454620001d3565b846200020f565b602080601f831160018114620002ce5760008415620002b55750858301515b600019600386901b1c1916600185901b17855562000259565b600085815260208120601f198616915b82811015620002ff57888601518255948401946001909101908401620002de565b50858210156200031e5787850151600019600388901b60f8161c191681555b5050505050600190811b01905550565b60008083546200033e81620001d3565b600182811680156200035957600181146200036f57620003a0565b60ff1984168752821515830287019450620003a0565b8760005260208060002060005b85811015620003975781548a8201529084019082016200037c565b50505082870194505b50929695505050505050565b60805160a05160c05160e051610100516113326200041b60003960008181610242015281816103f801526108e40152600081816102ce01528181610387015281816106ec015281816107750152610873015260006106a801526000610673015260006101db01526113326000f3fe608060405234801561001057600080fd5b50600436106101515760003560e01c80636f307dc3116100cd578063a0712d6811610081578063bf376c7a11610066578063bf376c7a1461031e578063d505accf14610331578063dd62ed3e1461034457600080fd5b8063a0712d68146102f8578063a9059cbb1461030b57600080fd5b80637ecebe00116100b25780637ecebe00146102a95780638da5cb5b146102c957806395d89b41146102f057600080fd5b80636f307dc31461023d57806370a082311461028957600080fd5b806323b872dd116101245780633644e515116101095780633644e5151461020f57806339f476931461021757806342966c681461022a57600080fd5b806323b872dd146101c3578063313ce567146101d657600080fd5b80630357371d1461015657806306fdde031461016b578063095ea7b31461018957806318160ddd146101ac575b600080fd5b610169610164366004610fcb565b61036f565b005b610173610423565b6040516101809190610ff5565b60405180910390f35b61019c610197366004610fcb565b6104b1565b6040519015158152602001610180565b6101b560025481565b604051908152602001610180565b61019c6101d1366004611061565b61052b565b6101fd7f000000000000000000000000000000000000000000000000000000000000000081565b60405160ff9091168152602001610180565b6101b561066f565b610169610225366004610fcb565b6106ca565b61016961023836600461109d565b6106d4565b6102647f000000000000000000000000000000000000000000000000000000000000000081565b60405173ffffffffffffffffffffffffffffffffffffffff9091168152602001610180565b6101b56102973660046110b6565b60036020526000908152604090205481565b6101b56102b73660046110b6565b60056020526000908152604090205481565b6102647f000000000000000000000000000000000000000000000000000000000000000081565b610173610750565b61016961030636600461109d565b61075d565b61019c610319366004610fcb565b6107d6565b61016961032c366004610fcb565b61085b565b61016961033f3660046110d8565b610916565b6101b561035236600461114b565b600460209081526000928352604080842090915290825290205481565b3373ffffffffffffffffffffffffffffffffffffffff7f000000000000000000000000000000000000000000000000000000000000000016146103de576040517f5fc483c500000000000000000000000000000000000000000000000000000000815260040160405180910390fd5b61041f73ffffffffffffffffffffffffffffffffffffffff7f0000000000000000000000000000000000000000000000000000000000000000168383610c3a565b5050565b600080546104309061117e565b80601f016020809104026020016040519081016040528092919081815260200182805461045c9061117e565b80156104a95780601f1061047e576101008083540402835291602001916104a9565b820191906000526020600020905b81548152906001019060200180831161048c57829003601f168201915b505050505081565b33600081815260046020908152604080832073ffffffffffffffffffffffffffffffffffffffff8716808552925280832085905551919290917f8c5be1e5ebec7d5bd14f71427d1e84f3dd0314c0f7b2291e5b200ac8c7c3b925906105199086815260200190565b60405180910390a35060015b92915050565b73ffffffffffffffffffffffffffffffffffffffff831660009081526004602090815260408083203384529091528120547fffffffffffffffffffffffffffffffffffffffffffffffffffffffffffffffff81146105bf5761058d8382611200565b73ffffffffffffffffffffffffffffffffffffffff861660009081526004602090815260408083203384529091529020555b73ffffffffffffffffffffffffffffffffffffffff8516600090815260036020526040812080548592906105f4908490611200565b909155505073ffffffffffffffffffffffffffffffffffffffff808516600081815260036020526040908190208054870190555190918716907fddf252ad1be2c89b69c2b068fc378daa952ba7f163c4a11628f55a4df523b3ef9061065c9087815260200190565b60405180910390a3506001949350505050565b60007f000000000000000000000000000000000000000000000000000000000000000046146106a5576106a0610d0f565b905090565b507f000000000000000000000000000000000000000000000000000000000000000090565b6103de3382610da9565b3373ffffffffffffffffffffffffffffffffffffffff7f00000000000000000000000000000000000000000000000000000000000000001614610743576040517f5fc483c500000000000000000000000000000000000000000000000000000000815260040160405180910390fd5b61074d3382610da9565b50565b600180546104309061117e565b3373ffffffffffffffffffffffffffffffffffffffff7f000000000000000000000000000000000000000000000000000000000000000016146107cc576040517f5fc483c500000000000000000000000000000000000000000000000000000000815260040160405180910390fd5b61074d3382610e3f565b336000908152600360205260408120805483919083906107f7908490611200565b909155505073ffffffffffffffffffffffffffffffffffffffff8316600081815260036020526040908190208054850190555133907fddf252ad1be2c89b69c2b068fc378daa952ba7f163c4a11628f55a4df523b3ef906105199086815260200190565b3373ffffffffffffffffffffffffffffffffffffffff7f000000000000000000000000000000000000000000000000000000000000000016146108ca576040517f5fc483c500000000000000000000000000000000000000000000000000000000815260040160405180910390fd5b61090c73ffffffffffffffffffffffffffffffffffffffff7f000000000000000000000000000000000000000000000000000000000000000016333084610eb0565b61041f8282610e3f565b42841015610985576040517f08c379a000000000000000000000000000000000000000000000000000000000815260206004820152601760248201527f5045524d49545f444541444c494e455f4558504952454400000000000000000060448201526064015b60405180910390fd5b6000600161099161066f565b73ffffffffffffffffffffffffffffffffffffffff8a811660008181526005602090815260409182902080546001810190915582517f6e71edae12b1b97f4d1f60370fef10105fa2faae0126114a169c64845d6126c98184015280840194909452938d166060840152608083018c905260a083019390935260c08083018b90528151808403909101815260e0830190915280519201919091207f190100000000000000000000000000000000000000000000000000000000000061010083015261010282019290925261012281019190915261014201604080517fffffffffffffffffffffffffffffffffffffffffffffffffffffffffffffffe08184030181528282528051602091820120600084529083018083525260ff871690820152606081018590526080810184905260a0016020604051602081039080840390855afa158015610ae3573d6000803e3d6000fd5b50506040517fffffffffffffffffffffffffffffffffffffffffffffffffffffffffffffffe0015191505073ffffffffffffffffffffffffffffffffffffffff811615801590610b5e57508773ffffffffffffffffffffffffffffffffffffffff168173ffffffffffffffffffffffffffffffffffffffff16145b610bc4576040517f08c379a000000000000000000000000000000000000000000000000000000000815260206004820152600e60248201527f494e56414c49445f5349474e4552000000000000000000000000000000000000604482015260640161097c565b73ffffffffffffffffffffffffffffffffffffffff90811660009081526004602090815260408083208a8516808552908352928190208990555188815291928a16917f8c5be1e5ebec7d5bd14f71427d1e84f3dd0314c0f7b2291e5b200ac8c7c3b925910160405180910390a350505050505050565b60006040517fa9059cbb00000000000000000000000000000000000000000000000000000000815273ffffffffffffffffffffffffffffffffffffffff84166004820152826024820152602060006044836000895af13d15601f3d1160016000511416171691505080610d09576040517f08c379a000000000000000000000000000000000000000000000000000000000815260206004820152600f60248201527f5452414e534645525f4641494c45440000000000000000000000000000000000604482015260640161097c565b50505050565b60007f8b73c3c69bb8fe3d512ecc4cf759cc79239f7b179b0ffacaa9a75d522b39400f6000604051610d419190611213565b6040805191829003822060208301939093528101919091527fc89efdaa54c0f20c7adf612882df0950f5a951637e0307cdcb4c672f298b8bc660608201524660808201523060a082015260c00160405160208183030381529060405280519060200120905090565b73ffffffffffffffffffffffffffffffffffffffff821660009081526003602052604081208054839290610dde908490611200565b909155505060028054829003905560405181815260009073ffffffffffffffffffffffffffffffffffffffff8416907fddf252ad1be2c89b69c2b068fc378daa952ba7f163c4a11628f55a4df523b3ef906020015b60405180910390a35050565b8060026000828254610e5191906112e9565b909155505073ffffffffffffffffffffffffffffffffffffffff82166000818152600360209081526040808320805486019055518481527fddf252ad1be2c89b69c2b068fc378daa952ba7f163c4a11628f55a4df523b3ef9101610e33565b60006040517f23b872dd00000000000000000000000000000000000000000000000000000000815273ffffffffffffffffffffffffffffffffffffffff8516600482015273ffffffffffffffffffffffffffffffffffffffff841660248201528260448201526020600060648360008a5af13d15601f3d1160016000511416171691505080610f9b576040517f08c379a000000000000000000000000000000000000000000000000000000000815260206004820152601460248201527f5452414e534645525f46524f4d5f4641494c4544000000000000000000000000604482015260640161097c565b5050505050565b803573ffffffffffffffffffffffffffffffffffffffff81168114610fc657600080fd5b919050565b60008060408385031215610fde57600080fd5b610fe783610fa2565b946020939093013593505050565b600060208083528351808285015260005b8181101561102257858101830151858201604001528201611006565b5060006040828601015260407fffffffffffffffffffffffffffffffffffffffffffffffffffffffffffffffe0601f8301168501019250505092915050565b60008060006060848603121561107657600080fd5b61107f84610fa2565b925061108d60208501610fa2565b9150604084013590509250925092565b6000602082840312156110af57600080fd5b5035919050565b6000602082840312156110c857600080fd5b6110d182610fa2565b9392505050565b600080600080600080600060e0888a0312156110f357600080fd5b6110fc88610fa2565b965061110a60208901610fa2565b95506040880135945060608801359350608088013560ff8116811461112e57600080fd5b9699959850939692959460a0840135945060c09093013592915050565b6000806040838503121561115e57600080fd5b61116783610fa2565b915061117560208401610fa2565b90509250929050565b600181811c9082168061119257607f821691505b6020821081036111cb577f4e487b7100000000000000000000000000000000000000000000000000000000600052602260045260246000fd5b50919050565b7f4e487b7100000000000000000000000000000000000000000000000000000000600052601160045260246000fd5b81810381811115610525576105256111d1565b600080835481600182811c91508083168061122f57607f831692505b60208084108203611267577f4e487b710000000000000000000000000000000000000000000000000000000086526022600452602486fd5b81801561127b57600181146112ae576112db565b7fffffffffffffffffffffffffffffffffffffffffffffffffffffffffffffff00861689528415158502890196506112db565b60008a81526020902060005b868110156112d35781548b8201529085019083016112ba565b505084890196505b509498975050505050505050565b80820180821115610525576105256111d156fea2646970667358221220ad3d29a4463d14a148a3849050be8e5252fd8bc37be24d48ae47ffef67fa5b4664736f6c63430008130033","linkReferences":{}},"methodIdentifiers":{"FEE_DENOMINATOR()":"d73792a9","NO_TOKEN_BURN_ADDRESS()":"7ad7fe36","addAdmin(address)":"70480275","admins(address)":"429b62e5","balanceOf(address,uint256)":"00fdd58e","balanceOfBatch(address[],uint256[])":"4e1273f4","col()":"a78695b0","convertPositions(bytes32,uint256,uint256)":"c64748c4","ctf()":"22a9339f","getConditionId(bytes32)":"04329c03","getDetermined(bytes32)":"7ae2e67b","getFeeBips(bytes32)":"2582cb5e","getMarketData(bytes32)":"30f4f4bb","getOracle(bytes32)":"dafaf94a","getPositionId(bytes32,bool)":"752b5ba5","getQuestionCount(bytes32)":"b7f75d2c","getResult(bytes32)":"add4c784","isAdmin(address)":"24d7806c","mergePositions(address,bytes32,bytes32,uint256[],uint256)":"9e7212ad","mergePositions(bytes32,uint256)":"b10c5c17","onERC1155BatchReceived(address,address,uint256[],uint256[],bytes)":"bc197c81","onERC1155Received(address,address,uint256,uint256,bytes)":"f23a6e61","prepareMarket(uint256,bytes)":"8a0db615","prepareQuestion(bytes32,bytes)":"1d69b48d","redeemPositions(bytes32,uint256[])":"dbeccb23","removeAdmin(address)":"1785f53c","renounceAdmin()":"8bad0c0a","reportOutcome(bytes32,bool)":"e200affd","safeTransferFrom(address,address,uint256,uint256,bytes)":"f242432a","splitPosition(address,bytes32,bytes32,uint256[],uint256)":"72ce4275","splitPosition(bytes32,uint256)":"a3d7da1d","vault()":"fbfa77cf","wcol()":"7e3b74c3"},"id":25}